:100000000C9484010C94AD080C94DA080C94070944
:100010000C9434090C94AC010C94AC010C9461095F
:100020000C94AC010C94AC010C94B50F0C94670EBD
:100030000C94AC010C94AC010C94AC010C94AC018C
:100040000C94AC010C94AC010C94AC010C94AC017C
:100050000C94AC010C94AC010C94AC010C94E50B29
:100060000C94AC010C94AC010C94AC010C94AC015C
:100070000C94AC010C94AC010C94AC010C94AC014C
:100080000C94AC010C94AC010C94AC010C94AC013C
:100090000C94AC010C94AC010C94AC010C94AC012C
:1000A0000C94AC010C94AC010C94AC01B209B709EE
:1000B000BC09C609100A100A100AD009DA09E409B5
:1000C000EE09FB09100A030A540B570B4A0B4E0B9F
:1000D000780B780B780B5B0B5F0B630B690B6D0B6D
:1000E000780B730B080B00020202010009040000E8
:1000F0000102020000052400100105240101010491
:1001000024020605240600010705810310004009AA
:10011000040100020A000000070502024000000777
:100120000583024000000000000200080E000003EA
:100130000401000B000000000000000000000000AF
:1001400000000000040802011040804010204080A0
:10015000408008020401804020100201108010201D
:1001600040400404040404030405020202020403E0
:100170000202020206060606060604040202020441
:1001800000000000250028002B002E003100000098
:100190000000240027002A002D00300000C18081CB
:1001A000C11201000202000040412336800001011B
:1001B00002000112010002000000404123368000CD
:1001C000010102000118034100720064007500691A
:1001D000006E006F0020004C004C004300220341E1
:1001E0000072006400750069006E006F0020004C12
:1001F0000065006F006E006100720064006F000413
:1002000003090400000000000000002A2B28000061
:1002100000000000000000000000000000000000DE
:100220000000002C9EB4A0A1A2A434A6A7A5AE36BF
:100230002D3738271E1F20212223242526B333B62D
:100240002EB7B89F8485868788898A8B8C8D8E8F00
:10025000909192939495969798999A9B9C9D2F3103
:1002600030A3AD350405060708090A0B0C0D0E0F67
:10027000101112131415161718191A1B1C1DAFB1E3
:10028000B0B50009040200010300000009210101CA
:1002900000012265000705840340000105010902F1
:1002A000A1010901A1008501050919012903150012
:1002B00025019503750181029501750581030501ED
:1002C0000930093109381581257F750895038106A4
:1002D000C0C005010906A1018502050719E029E74B
:1002E00015002501750195088102950175088103A6
:1002F0009506750815002565050719002965810013
:10030000C000EC023208461111241FBECFEFDAE024
:10031000DEBFCDBF11E0A0E0B1E0EEE8F7E202C041
:1003200005900D92AE34B107D9F712E0AEE4B1E01A
:1003300001C01D92A437B107E1F713E0C8E0D3E094
:1003400004C02297FE010E94B213C230D107C9F740
:100350000E944C080C94C5130C940000E8E8F1E0EE
:1003600084A995A9A6A9B7A90196A11DB11D84AB21
:1003700095ABA6ABB7AB0895EEE4F1E084A995A9DF
:10038000A6A9B7A90196A11DB11D84AB95ABA6ABDB
:10039000B7AB0895CF92DF92EF92FF92CF93DF93A6
:1003A000EC016CA97DA98EA99FA90E945512288DE8
:1003B000398D4A8D5B8D0E940B1320E030E04AE7B7
:1003C00054E40E940B136B017C016A817B818C8158
:1003D0009D810E9455129B01AC01C701B6010E948C
:1003E000BC1168A379A38AA39BA31CAA1DAA1EAA59
:1003F0001FAA0E942F0CAB01BC01CE010E94C105B7
:10040000DF91CF91FF90EF90DF90CF900895A0E023
:10041000B0E0EDE0F2E00C947F13EC01D62EF42E68
:10042000122F20E030E0A90160E070E00E94A905F1
:10043000E4E1F1E0F983E883DB8AFC8A1D8B0E8B13
:10044000EF8A62E0802F0E94790B87E99FEFA0ED91
:10045000BAE3888F998FAA8FBB8F8DEC9CECACEEA2
:10046000B0E488A799A7AAA7BBA71CA61DA61EA68D
:100470001FA618AA19AA1AAA1BAA1C8E1D8E1E8EA8
:100480001F8E1CA21DA21EA21FA289E390E00E9443
:1004900049084C01ACA4BDA4CEA4DFA4E8A4F9A4EF
:1004A0000AA51BA59E01245E3F4FAE014C5D5F4F28
:1004B000BE01605E7F4F1F921F928BA98F938AA906
:1004C0008F9389A98F9388A98F93C4010E941105E6
:1004D00099AE88AE00E010E02FE733E440E050E052
:1004E000BA01C4010E94140461E070E088AD99ADC6
:1004F0000E94C0041CAA1DAA1EAA1FAA60E08B8924
:100500000E94B20B60E08C890E94B20BE881F981F5
:100510000190F081E02D44E650E060E070E0CE0113
:1005200009950F900F900F900F900F900F90CDB7EF
:10053000DEB7ECE00C949B13CF92DF92EF92FF9228
:10054000CF93DF93EC016A017B0120E030E0A90149
:10055000C701B6010E94071387FD09C061E08B89BE
:100560000E94B20B60E08C890E94B20B0CC060E06C
:100570008B890E94B20B61E08C890E94B20BF7FA62
:10058000F094F7F8F094CCA2DDA2EEA2FFA26CA149
:100590007DA18EA19FA10E9424128D890E948E09A7
:1005A000DF91CF91FF90EF90DF90CF90089560E8BA
:1005B00075E285EF91E00E94310842E050E06EEA7A
:1005C00071E080E00E945D0842E050E06CEB71E079
:1005D00081E00E945D080895EF920F9340E050E0A3
:1005E000BA0182EC91E00E943306E12C03E029E09D
:1005F00045E064E088E891E00E940702EE24E3947D
:1006000002E02AE040E16EE08EE491E00E94070201
:100610000F91EF9008954F925F926F927F928F9219
:100620009F92AF92BF92CF92DF92EF92FF92CF93C1
:10063000DF9385EF91E00E943B0706970CF44EC0D4
:1006400085EF91E00E9415076F3F09F047C085EFE5
:1006500091E00E9415072B013C0185EF91E00E947B
:1006600015074B015C0185EF91E00E941507EB0136
:1006700085EF91E00E9415076B017C01452831F060
:10068000B401882777FD8095982F08C066277727C3
:1006900068197909882777FD8095982F0E9457124D
:1006A000AB01BC0188E891E00E949C02CD2B31F0A7
:1006B000B601882777FD8095982F08C06627772791
:1006C0006C197D09882777FD8095982F0E94571215
:1006D000AB01BC018EE491E00E949C02DF91CF91BE
:1006E000FF90EF90DF90CF90BF90AF909F908F9052
:1006F0007F906F905F904F90089582EC91E00E9400
:10070000D7050E940B030895A4E0B0E0EAE8F3E007
:100710000C9479131C012A013B014801590120E086
:1007200030E0A901C301B2010E94B81187FD78C071
:1007300020E030E0A901C501B4010E94B81187FD95
:100740006FC020E030E0A901C701B6010E94B811D6
:1007500087FD66C0F1014082518262827382848289
:100760009582A682B782C086D186E286F38664A58A
:1007700075A586A597A50E94551220E030E04AE7AE
:1007800054E40E94BC1169837A838B839C83F101BA
:1007900044865586668677869B01AC01C501B40107
:1007A0000E940B134B015C01F101608B718B828BFA
:1007B000938B29813A814B815C81C701B6010E94EC
:1007C000BC116B017C01F101648B758B868B978B5F
:1007D000808D918D019721F5A301920160E070E079
:1007E000CB010E945311F101648775878687978733
:1007F000A501940160E070E0CB010E945311F1016A
:10080000608B718B828B938BA701960160E070E007
:10081000CB010E945311F101648B758B868B978BF2
:100820002496E2E10C949513A0E0B0E0EAE1F4E054
:100830000C947913EC016A017B0148015901A9016B
:100840009801C701B6010E94071387FF4EC0C8AACE
:10085000D9AAEAAAFBAA8CAA9DAAAEAABFAA88AD69
:10086000882309F442C02C8C3D8CF10140805180DA
:1008700062807380A5019401C301B2010E94071335
:10088000181634F4F10180829182A282B3820DC0E5
:10089000A7019601C301B2010E94B81187FF05C0EC
:1008A000F101C082D182E282F3828CA09DA0AEA031
:1008B000BFA0CCA8DDA8EEA8FFA8A7019601C5019E
:1008C000B4010E940713181664F0C8A8D9A8EAA8B2
:1008D000FBA8A7019601C501B4010E94B81187FFCA
:1008E00004C0CCA2DDA2EEA2FFA2CDB7DEB7E2E14A
:1008F0000C9495138F929F92AF92BF92CF92DF92FA
:10090000EF92FF92CF93DF93EC01EC8DFD8DC080D1
:10091000D180E280F380CCA2DDA2EEA2FFA2EA8D1C
:10092000FB8D80819181A281B38188A799A7AAA715
:10093000BBA78CA89DA8AEA8BFA8A5019401C7011C
:10094000B6010E940713181664F088A899A8AAA8EF
:10095000BBA8A5019401C701B6010E94B81187FF89
:1009600004C08CA29DA2AEA2BFA2DF91CF91FF9046
:10097000EF90DF90CF90BF90AF909F908F900895B1
:100980001F93CF93DF93EC0111E06130710511F0FB
:1009900010E006C088AD811103C0CE010E947A0428
:1009A00018AFDF91CF911F9108950F931F93CF93AD
:1009B000DF93EC018B0188AD882361F1888D998DDF
:1009C0006817790739F12C853D854E855F8560E094
:1009D00070E0CB010E9453116C877D878E879F87C3
:1009E000288939894A895B8960E070E0CB010E94DF
:1009F0005311688B798B8A8B9B8B2C893D894E890F
:100A00005F8960E070E0CB010E9453116C8B7D8B9D
:100A10008E8B9F8B198F088FDF91CF911F910F9134
:100A20000895A4E0B0E0E7E1F5E00C947B134C01FD
:100A300027013801A982BA82CB82DC82FC01558F62
:100A4000448F738F628F378F268F10AE10AA11AA32
:100A500012AA13AA80E090E0AFE7B3E484AB95ABB1
:100A6000A6ABB7AB84E690E0A0E0B0E084A795A782
:100A7000A6A7B7A76B8D7C8DC4010E94D504CF8833
:100A8000D88CE98CFA8C09811A812B813C81B301C5
:100A9000A201C4010E9484030E942F0CF40144A40B
:100AA00055A466A477A4641975098609970960A3FB
:100AB00071A382A393A32496E0E10C9497130F9360
:100AC0001F93FC01428353836483758306811781DE
:100AD00020853185040F151F261F371F02871387B6
:100AE000248735871F910F9108950F931F93FC0161
:100AF0000285138524853585401B510B620B730BD2
:100B000077FD02C0808901C080E01F910F91089598
:100B10000F931F93CF93DF93EC01EE85FF85309702
:100B200009F009950E942F0C6E837F83888799872F
:100B30000A811B812C813D81060F171F281F391F39
:100B40000A871B872C873D87DF91CF911F910F91DB
:100B50000895FC018EE191E09183808381E0808B98
:100B6000778766871682178210861186F28BE18B53
:100B70002283338344835583228733874487558771
:100B800008950F931F93FC014683578360877187F5
:100B90000281138124813581040F151F261F371F01
:100BA00002871387248735871F910F910895A0E04E
:100BB000B0E0EDEDF5E00C947F13EC01EE85FF85E0
:100BC000309709F009950E942F0C6B017C018E0172
:100BD0005E012EE1A20EB11C812C912C89A99AA94B
:100BE0008815990524F1D80153968D919C915497BD
:100BF0000097C1F0BFEF8B1A9B0ADC01ED91FC91CD
:100C00000280F381E02DB701A6010995882351F0F8
:100C1000F80183899489DC01ED91FC910480F581D0
:100C2000E02D09950E5F1F4F0A151B05B9F60E94AE
:100C30002F0CAB01BC01CE010E94C105CDB7DEB7C0
:100C4000ECE00C949B1320E030E0FC01E20FF31F7A
:100C5000148A138A2E5F3F4F2E313105B1F7FC0104
:100C600012AA11AA0895CF92DF92EF92FF92CF932A
:100C7000DF93EC016A017B0120E030E0A90160E034
:100C800070E00E94A90588E291E0998388831AAAFE
:100C900019AACE010E942306E881F9810190F08112
:100CA000E02DB701A601CE010995DF91CF91FF900C
:100CB000EF90DF90CF9008950F931F93CF93DF9322
:100CC000EC010E942F0C688779878A879B87E881CF
:100CD000F9810084F185E02DCE01099597FF15C0BB
:100CE0000E942F0C088519852A853B85601B710B96
:100CF000820B930B0C811D812E813F816017710740
:100D00008207930720F38FEF9FEFDF91CF911F9121
:100D10000F910895CF93DF93EC01CE010E945C0602
:100D200097FD11C08D32910571F09C01205331095E
:100D30002A30310540F0E881F9810680F781E02D05
:100D4000CE010995EACFDF91CF910895CF92DF923E
:100D5000FF920F931F93CF93DF9300D000D0CDB7B6
:100D6000DEB76C01062F0E948A06FC0197FD4BC07E
:100D700020E030E0A901F12C112707FD1095E017C4
:100D8000F107E9F0ED32F105C1F0CF01C0970A9704
:100D9000B0F4AAE0B0E00E946E139B01AC01CF0159
:100DA000AA2797FDA095BA2F280F391F4A1F5B1F4E
:100DB000205331094109510902C0FF24F394D6019F
:100DC000ED91FC910680F781E02DC60129833A83DD
:100DD0004B835C830995C6010E945C06FC01C097A9
:100DE00029813A814B815C810A9748F2E017F1072B
:100DF00031F2FF2061F066277727CB01621B730B6E
:100E0000840B950B06C060E070E0CB0102C0CA0104
:100E1000B9010F900F900F900F90DF91CF911F911C
:100E20000F91FF90DF90CF90089561E00E94A60699
:100E30000895A0E0B0E0EFE1F7E00C9483136C01BB
:100E40007A01EB01E60EF71E00E010E0CE15DF059B
:100E500061F06991D601ED91FC910190F081E02D56
:100E6000C6010995080F191FF1CFC801CDB7DEB72C
:100E7000E8E00C949F1380914302909144022091EA
:100E8000450230914602821B930B8F739927089578
:100E90002091430230914402809145029091460294
:100EA0002817390749F0E0914502F0914602ED5FBD
:100EB000FD4F808190E008958FEF9FEF089520917E
:100EC00043023091440280914502909146022817D6
:100ED0003907A9F0E0914502F0914602ED5FFD4F20
:100EE000808120914502309146022F5F3F4F2F7342
:100EF0003327309346022093450290E008958FEF08
:100F00009FEF0895CF93DF93C0914302D0914402A5
:100F10002196CF73DD278091450290914602C81734
:100F2000D90799F082E00E94420D8F3F2FEF920780
:100F300061F0E0914302F0914402ED5FFD4F808348
:100F4000D0934402C0934302DFCFDF91CF91089545
:100F500083E00E948D0F0895A1E0B0E0E2EBF7E09E
:100F60000C9487138C01698380910701882359F0C1
:100F700041E050E0BE016F5F7F4F83E00E94750D3E
:100F8000181619063CF081E090E0F8019383828303
:100F900080E090E02196E4E00C94A313FC01208112
:100FA0002E5F208342E450E064EE70E080E80E940F
:100FB000F50D0895FC0181819081913A59F48132B7
:100FC00009F04BC047E050E060E071E080E00E9433
:100FD000F50D45C0913209F040C0803239F467E028
:100FE00070E080E091E00E94390E39C0823209F051
:100FF00034C08281809307018091000190910101AA
:10100000A0910201B0910301803B9440A105B1057C
:1010100031F58091070180FD12C087E797E7909333
:101020000108809300082BE088E190E00FB6F89467
:10103000A895809360000FBE2093600010C088E1E7
:101040000FB6F89480936000109260000FBEA895D0
:10105000109201081092000802C080E0089581E01B
:10106000089508951092F8011092F70188EE93E028
:10107000A0E0B0E08093F9019093FA01A093FB0106
:10108000B093FC0182E391E09093F6018093F50127
:1010900008950E94190A08950E94840C8AE592E03E
:1010A0000E94970F0E94D702C0E0D0E00E947D030B
:1010B0002097E1F30E940000F9CF853008F04CC082
:1010C000E82FF0E0EE0FFF1FE95BFD4F71836083B7
:1010D0008230E1F018F4813069F004C0833019F1F6
:1010E000843071F1809169008C7F842B809369003A
:1010F000E89A089580916900440F551F440F551FC9
:10110000837F842B80936900E99A08958091690018
:1011100034E0440F551F3A95E1F78F7C842B809380
:101120006900EA9A08958091690026E0440F551FEE
:101130002A95E1F78F73842B80936900EB9A0895C9
:1011400080916A0094E0440F551F9A95E1F78F7CD7
:10115000842B80936A00EE9A08951F920F920FB627
:101160000F9211242F933F934F935F936F937F932D
:101170008F939F93AF93BF93EF93FF938091470219
:1011800090914802892B29F0E0914702F0914802A2
:101190000995FF91EF91BF91AF919F918F917F91B1
:1011A0006F915F914F913F912F910F900FBE0F90D4
:1011B0001F9018951F920F920FB60F9211242F9324
:1011C0003F934F935F936F937F938F939F93AF93CF
:1011D000BF93EF93FF938091490290914A02892B2C
:1011E00029F0E0914902F0914A020995FF91EF91AF
:1011F000BF91AF919F918F917F916F915F914F912F
:101200003F912F910F900FBE0F901F9018951F9236
:101210000F920FB60F9211242F933F934F935F932A
:101220006F937F938F939F93AF93BF93EF93FF93AE
:1012300080914B0290914C02892B29F0E0914B0256
:10124000F0914C020995FF91EF91BF91AF919F9161
:101250008F917F916F915F914F913F912F910F905F
:101260000FBE0F901F9018951F920F920FB60F92FE
:1012700011242F933F934F935F936F937F938F939B
:101280009F93AF93BF93EF93FF9380914D02909103
:101290004E02892B29F0E0914D02F0914E02099502
:1012A000FF91EF91BF91AF919F918F917F916F913E
:1012B0005F914F913F912F910F900FBE0F901F9014
:1012C00018951F920F920FB60F9211242F933F93F0
:1012D0004F935F936F937F938F939F93AF93BF933E
:1012E000EF93FF9380914F0290915002892B29F048
:1012F000E0914F02F09150020995FF91EF91BF915B
:10130000AF919F918F917F916F915F914F913F919D
:101310002F910F900FBE0F901F9018951F93CF9392
:10132000DF93182FEB0161E00E94790B209711F4F5
:1013300060E004C0CF3FD10529F461E0812F0E9415
:10134000B20B73C0E12FF0E0EA5DFE4F449150E034
:10135000FA013197EE30F10508F062C0EA5AFF4F0A
:101360000C94B01384B5806884BDC7BD5EC084B5DD
:10137000806284BDC8BD59C0809180008068809320
:101380008000D0938900C09388004FC08091800076
:10139000806280938000D0938B00C0938A0045C008
:1013A00080919000806880939000D0939900C093C2
:1013B00098003BC080919000806280939000D09311
:1013C0009B00C0939A0031C0809190008860809308
:1013D0009000D0939D00C0939C0027C08091C000D6
:1013E00080688093C0008091C0008F7B8093C00094
:1013F000C093CF001AC08091C00080628093C0006B
:10140000C093D00012C08091C20088608093C20057
:101410008091C2008B7F8093C200C093D20005C030
:10142000C038D1050CF089CF83CFDF91CF911F91C8
:101430000895CF93DF938230910510F482E090E01D
:10144000E0917202F091730220E030E0A0E0B0E0A1
:10145000309739F14081518148175907B8F0481742
:10146000590771F482819381109729F013969C9308
:101470008E9312972CC0909373028093720227C0B0
:101480002115310531F04217530718F0A901DB018E
:1014900001C0EF019A01BD01DF010280F381E02D5F
:1014A000D7CF21153105F9F0281B390B2430310530
:1014B00080F48A819B816115710521F0FB01938382
:1014C000828304C09093730280937202FE0132966D
:1014D00044C0FE01E20FF31F819391932250310922
:1014E000398328833AC02091700230917102232BF6
:1014F00041F420910A0130910B0130937102209345
:10150000700220910801309109012115310541F443
:101510002DB73EB740910C0150910D01241B350BA6
:10152000E0917002F0917102E217F307A0F42E1B14
:101530003F0B2817390778F0AC014E5F5F4F241737
:10154000350748F04E0F5F1F5093710240937002B1
:101550008193919302C0E0E0F0E0CF01DF91CF9161
:101560000895CF93DF93009709F487C0FC01329769
:1015700013821282C0917202D0917302209781F47B
:1015800020813181280F391F809170029091710262
:101590008217930779F5F0937102E09370026DC0A2
:1015A000DE0120E030E0AE17BF0750F412964D91F7
:1015B0005C9113979D014115510509F1DA01F3CFB3
:1015C000B383A28340815181840F951F8A179B07A3
:1015D00071F48D919C911197840F951F02969183C0
:1015E000808312968D919C9113979383828321150A
:1015F000310529F4F0937302E09372023EC0D901E1
:101600001396FC93EE9312974D915D91A40FB51F25
:10161000EA17FB0779F480819181840F951F029668
:10162000D90111969C938E938281938113969C93FA
:101630008E931297E0E0F0E08A819B81009719F089
:10164000FE01EC01F9CFCE01029628813981820F8B
:10165000931F20917002309171022817390769F4A5
:10166000309729F4109273021092720202C0138212
:101670001282D0937102C0937002DF91CF910895CE
:1016800090E0FC013197EE30F10590F5EC59FF4FF9
:101690000C94B013809180008F7703C080918000FC
:1016A0008F7D80938000089584B58F7702C084B5C4
:1016B0008F7D84BD0895809190008F7707C08091C1
:1016C00090008F7D03C080919000877F8093900071
:1016D00008958091C0008F7703C08091C0008F7DF6
:1016E0008093C00008958091C200877F8093C200DC
:1016F0000895CF93DF9390E0FC01EC5BFE4F2491C3
:10170000FC01EE59FE4F8491882349F190E0880F47
:10171000991FFC01E257FE4FA591B49180589E4F4E
:10172000FC01C591D4919FB7611108C0F8948C91C8
:10173000209582238C93888182230AC0623051F4E1
:10174000F8948C91322F309583238C938881822B4F
:10175000888304C0F8948C91822B8C939FBFDF9177
:10176000CF910895A1E0B0E0E8EBFBE00C94871383
:10177000282F30E0F901EA5DFE4F8491F901EC5B1E
:10178000FE4F1491F901EE59FE4F04910023C9F068
:10179000882321F069830E94400B6981E02FF0E0EB
:1017A000EE0FFF1FE058FE4FA591B4919FB7F8943C
:1017B0008C91611103C01095812301C0812B8C9302
:1017C0009FBF2196E4E00C94A3131F920F920FB6D3
:1017D0000F9211242F933F938F939F93AF93BF93B7
:1017E0008091520290915302A0915402B0915502FF
:1017F0003091510223E0230F2D3720F40196A11DD3
:10180000B11D05C026E8230F0296A11DB11D20932E
:1018100051028093520290935302A0935402B093CA
:1018200055028091560290915702A0915802B091B2
:1018300059020196A11DB11D809356029093570243
:10184000A0935802B0935902BF91AF919F918F918D
:101850003F912F910F900FBE0F901F9018952FB7AB
:10186000F8946091520270915302809154029091C9
:1018700055022FBF08953FB7F8948091560290917A
:101880005702A0915802B091590226B5A89B05C0F5
:101890002F3F19F00196A11DB11D3FBF6627782F7C
:1018A000892F9A2F620F711D811D911D42E0660FD5
:1018B000771F881F991F4A95D1F70895CF92DF921D
:1018C000EF92FF92CF93DF936B017C010E943B0C60
:1018D000EB01C114D104E104F10479F00E943B0C46
:1018E0006C1B7D0B683E7340A0F381E0C81AD108E1
:1018F000E108F108C851DC4FECCFDF91CF91FF90A8
:10190000EF90DF90CF900895789484B5826084BD85
:1019100084B5816084BD85B5826085BD85B58160F3
:1019200085BDEEE6F0E0808181608083E1E8F0E053
:101930001082808182608083808181608083E0E882
:10194000F0E0808181608083E1E9F0E08081826065
:101950008083808181608083E0E9F0E08081816024
:101960008083E1ECF0E0808184608083808182600C
:101970008083808181608083E3ECF0E080818160FE
:101980008083E0ECF0E0808182608083E2ECF0E034
:10199000808181608083EAE7F0E0808184608083D9
:1019A0008081826080838081816080838081806883
:1019B00080830895615030F02091F100FC01208374
:1019C0000196F8CF289884E68093610208952FB796
:1019D000FC012083F89467706093E9000895A1E00A
:1019E000B0E0E5EFFCE00C948913682FCE0101967E
:1019F0000E94E70C8091F20099819FBF2196E2E05E
:101A00000C94A513A2E0B0E0E8E0FDE00C9486138E
:101A1000F62E8A0190916002992311F057FF03C0BE
:101A20008FEF9FEF2BC0682FCE0101967A830E9423
:101A3000E70C8091F20090E0A8017A81801791076D
:101A40000CF4AC01EF2DF72FF40E84E6FE1639F0FE
:101A50002898809361029091F1009193F7CF4115FE
:101A6000510521F08091F200882321F089818FBFF8
:101A7000CA0104C08BE68093E800F8CF2296E5E027
:101A80000C94A213A1E0B0E0E8E4FDE00C9489130B
:101A900041E050E0BE016F5F7F4F0E94020D019751
:101AA00019F4898190E002C08FEF9FEF2196E2E068
:101AB0000C94A513A1E0B0E0E0E6FDE00C948913DE
:101AC000682FCE0101960E94E70C9091E800892FC3
:101AD000807295FF04C09091F20080E4891B998187
:101AE0009FBF2196E2E00C94A513A1E0B0E0EBE7E4
:101AF000FDE00C947B13582E7B01A42E952E809133
:101B00006002882369F0042F152F8AEFB82E852DE7
:101B10008072782E9AE3892E852D8074682E11C0EC
:101B20008FEF9FEF53C0852D0E945A0D482E8111D3
:101B30000CC0BA94A9F361E070E080E090E00E94EC
:101B40005E0C0115110579F737C0282F30E0021718
:101B500013070CF4402EC42CD12C0C191D09652D33
:101B6000CE0101960E94E70C772039F04A948FEF5E
:101B70004816B1F01092F100F9CFF701842D57FE0D
:101B800007C0815058F094919093F1003196F9CFAD
:101B9000815020F091919093F100FACFEC0CFD1C54
:101BA0008091E80085FF0FC00115110511F4611047
:101BB0000AC089818FBFC5CF5D9884E68093620299
:101BC0008A2D992D03C08092E800F3CF2196E0E1A1
:101BD0000C9497131092E90010925F0210925E022B
:101BE00090935D0280935C020895CF93DF93FB0195
:101BF00020E030E0DEEF24173507A1F187FF02C0B7
:101C0000C49101C0C081A0915E02B0915F02609159
:101C10005C0270915D02A617B707B4F49091E800DA
:101C20009570E1F39091E80092FD1EC0C093F10021
:101C300060915E0270915F026F5F7F4F6F737727D5
:101C4000672B11F4D093E80060915E0270915F02FF
:101C50006F5F7F4F70935F0260935E022F5F3F4F15
:101C60003196C9CFC90102C08FEF9FEFDF91CF91AD
:101C70000895A1E0B0E0EFE3FEE00C948813162F86
:101C80002091E80022FFFCCF612F79830E94DA0CBB
:101C90008BEF8093E800812F7981972F2196E3E0E5
:101CA0000C94A413A1E0B0E0E8E5FEE00C948913E5
:101CB0001982CE0101960E94CE07CE0101960E94A4
:101CC0003110898190E02196E2E00C94A5131F92D7
:101CD0000F920FB60F921124EF92FF920F931F9362
:101CE0002F933F934F935F936F937F938F939F9324
:101CF000AF93BF93EF93FF93CF93DF93CDB7DEB74F
:101D00006297DEBFCDBF1092E9008091E80083FFAB
:101D1000E7C068E0CE010A960E94DA0C82EF809359
:101D2000E8009A8597FF05C08091E80080FFFCCF0E
:101D300003C08EEF8093E800892F807609F0B5C04C
:101D40008B85811105C01092F1001092F100C1C085
:101D5000282F2D7F213009F4BCC0853049F48091B3
:101D6000E80080FFFCCF8C8580688093E300B1C0E1
:101D7000863009F072C02D85E888F988223071F527
:101D800080E090E02A8B0E94EA0D0E94520E99E0BA
:101D90008E010F5F1F4FF801392F11923A95E9F725
:101DA00099832A892A8391E09E8390E898879AEF05
:101DB000998720915E0230915F02275F3F4F3C83FD
:101DC0002B838D83C7010E94EA0D49E050E0B801E2
:101DD00080E00E94F50D0E94520E7BC0C7012A8B45
:101DE0000E94EA0D2A89223241F482E290E00E94A8
:101DF0003D10892B09F06DC070C0213069F48889CD
:101E00009989089711F420935B0280915B028823E3
:101E100089F061EA71E016C0233009F05EC08C855C
:101E2000882359F0823061F0813009F056C065ECAA
:101E300071E008C063EB71E005C06FEF71E002C0B4
:101E40006DED71E06115710509F447C0FB01449126
:101E500050E080E80E94F50D3CC0873009F43DC099
:101E6000883021F481E08093F10033C0893089F516
:101E7000937099F5EDE9F1E081E021E096E380933C
:101E8000E9002093EB0034913093EC009093ED0047
:101E90008F5F3196853099F78EE78093EA00109234
:101EA000EA008C858093600214C0888999890E9419
:101EB000EA0D8E85811105C0CE010A960E94DA07CF
:101EC00006C0823051F4CE010A960E945F1088232A
:101ED00021F08EEF8093E80003C081E28093EB0055
:101EE00062960FB6F894DEBF0FBECDBFDF91CF91E3
:101EF000FF91EF91BF91AF919F918F917F916F91E2
:101F00005F914F913F912F911F910F91FF90EF9013
:101F10000F900FBE0F901F9018958093E90080914D
:101F2000F200882319F08AE38093E8000895109264
:101F3000600281E08093D70080EA8093D80082E13C
:101F400089BD09B400FEFDCF61E070E080E090E063
:101F50000E945E0C80E98093D8008CE08093E200C0
:101F60001092E000559A209A08951F920F920FB692
:101F70000F9211242F933F934F935F936F937F930F
:101F80008F939F93AF93BF93EF93FF938091E10063
:101F90001092E10083FF0FC01092E90091E090934E
:101FA000EB001092EC0092E39093ED00109260022F
:101FB00098E09093F00082FF26C083E00E948D0F8E
:101FC00082E00E94EF0C882321F085EF91E00E94CF
:101FD000820780916202882339F0809162028150E9
:101FE00080936202882369F080916102882359F00E
:101FF00080916102815080936102811104C0289A0E
:1020000002C05D9AF1CFFF91EF91BF91AF919F9187
:102010008F917F916F915F914F913F912F910F9091
:102020000FBE0F901F901895FF920F931F93CF93A1
:10203000DF93EC01F62EE881F9810480F581E02D33
:1020400009958C01E881F9810680F781E02D6F2DDB
:10205000CE010995C8019927CDB7DEB7E5E00C940C
:10206000A213FC0120812F5F208349E150E063E847
:1020700072E080E80E94F50D089545E650E06CE9B5
:1020800072E080E80E94F50D0895A1E0B0E0EBE475
:10209000F0E10C94851389838B017A0141E050E0D3
:1020A000BE016F5F7F4F84E00E94750DA701B801EC
:1020B00084E40E94750D2196E6E00C94A113FC01C6
:1020C00091818081813A31F481E0913091F09330B7
:1020D00089F411C0813271F49B3021F482818093A4
:1020E0000F0105C09A3031F4828180930E0181E0A6
:1020F0000895089580E0089548E050E082E00E944D
:1021000045100895CF93DF93DC01683818F0E8E7B5
:10211000E60F25C0E62FF0E067FF11C0E058F10997
:1021200081E090E001C0880FEA95EAF714969C914F
:102130001497982B14969C931497E0E010C0ED5FD1
:10214000FD4FE491EE2309F440C0E7FF08C0149668
:102150008C911497826014968C931497EF7716964F
:102160008C9116978E1741F117968C9117978E17B1
:1021700019F118968C9118978E17F1F019968C9189
:1021800019978E17C9F01A968C911A978E17A1F08D
:102190001B968C911B978E1779F080E090E0ED01F3
:1021A000C80FD91F2E81211102C0EE8305C00196F0
:1021B00086309105A1F709C0BD016C5F7F4FCD014D
:1021C0000E947C1081E090E008C081E090E01396CE
:1021D0009C938E93129780E090E0DF91CF910895C9
:1021E000683818F0E8E7E60F25C0E62FF0E067FF53
:1021F00012C0E058F10921E030E001C0220FEA9559
:10220000EAF72095DC0114963C911497322314963A
:102210003C93E0E00FC0ED5FFD4FE491EE2329F128
:10222000E7FF08C0DC0114962C9114972D7F1496BB
:102230002C93EF7720E030E0EE2351F0DC01A20F89
:10224000B31F16964C9116974E1302C016961C9209
:102250002F5F3F4F2630310579F7BC016C5F7F4F10
:102260000E947C1081E090E0089580E090E0089565
:10227000FC0116821782108611861286138614823C
:10228000BC016C5F7F4F0E947C10089510926F021A
:10229000109266021092650284E491E090936402C9
:1022A0008093630208955058BB27AA270ED075C1AA
:1022B00066D130F06BD120F031F49F3F11F41EF461
:1022C0005BC10EF4E095E7FB51C1E92F77D180F3B4
:1022D000BA17620773078407950718F071F49EF523
:1022E0008FC10EF4E0950B2EBA2FA02D0B01B90172
:1022F00090010C01CA01A0011124FF27591B99F07C
:10230000593F50F4503E68F11A16F040A22F232F87
:10231000342F4427585FF3CF469537952795A795D7
:10232000F0405395C9F77EF41F16BA0B620B730B7E
:10233000840BBAF09150A1F0FF0FBB1F661F771FEF
:10234000881FC2F70EC0BA0F621F731F841F48F4A4
:10235000879577956795B795F7959E3F08F0B3CF2A
:102360009395880F08F09927EE0F97958795089514
:10237000D9D008F481E008950CD00FC107D140F006
:10238000FED030F021F45F3F19F0F0C0511139C197
:10239000F3C014D198F39923C9F35523B1F3951BD6
:1023A000550BBB27AA2762177307840738F09F5F76
:1023B0005F4F220F331F441FAA1FA9F333D00E2EE5
:1023C0003AF0E0E830D091505040E695001CCAF752
:1023D00029D0FE2F27D0660F771F881FBB1F261717
:1023E00037074807AB07B0E809F0BB0B802DBF01EA
:1023F000FF2793585F4F2AF09E3F510568F0B6C003
:1024000000C15F3FECF3983EDCF3869577956795C6
:10241000B795F7959F5FC9F7880F911D969587959A
:1024200097F90895E1E0660F771F881FBB1F6217B9
:1024300073078407BA0720F0621B730B840BBA0B77
:10244000EE1F88F7E095089504D06894B111D9C0C3
:102450000895BCD088F09F5790F0B92F9927B751B5
:10246000A0F0D1F0660F771F881F991F1AF0BA9558
:10247000C9F712C0B13081F0C3D0B1E00895C0C037
:10248000672F782F8827B85F39F0B93FCCF386954E
:1024900077956795B395D9F73EF4909580957095AB
:1024A00061957F4F8F4F9F4F0895E89409C097FB28
:1024B0003EF490958095709561957F4F8F4F9F4F1B
:1024C0009923A9F0F92F96E9BB279395F69587955F
:1024D00077956795B795F111F8CFFAF4BB0F11F422
:1024E00060FF1BC06F5F7F4F8F4F9F4F16C08823C9
:1024F00011F096E911C0772321F09EE8872F762FFF
:1025000005C0662371F096E8862F70E060E02AF03F
:102510009A95660F771F881FDAF7880F969587952B
:1025200097F90895990F0008550FAA0BE0E8FEEF00
:1025300016161706E807F907C0F012161306E40787
:10254000F50798F0621B730B840B950B39F40A2680
:1025500061F0232B242B252B21F408950A2609F45E
:10256000A140A6958FEF811D811D089597F99F6762
:1025700080E870E060E008959FEF80EC089500240B
:102580000A941616170618060906089500240A94D8
:1025900012161306140605060895092E0394000C5E
:1025A00011F4882352F0BB0F40F4BF2B11F460FFED
:1025B00004C06F5F7F4F8F4F9F4F089557FD905816
:1025C000440F551F59F05F3F71F04795880F97FBF7
:1025D000991F61F09F3F79F08795089512161306B1
:1025E0001406551FF2CF4695F1DF08C016161706E0
:1025F0001806991FF1CF8695710561050894089515
:10260000E894BB2766277727CB0197F908958ADFDF
:1026100008F48FEF08950BD0C0CFB1DF28F0B6DFFC
:1026200018F0952309F0A2CFA7CF1124EACFC6DF77
:10263000A0F3959FD1F3950F50E0551F629FF001D5
:10264000729FBB27F00DB11D639FAA27F00DB11D2E
:10265000AA1F649F6627B00DA11D661F829F2227B7
:10266000B00DA11D621F739FB00DA11D621F839F3E
:10267000A00D611D221F749F3327A00D611D231F14
:10268000849F600D211D822F762F6A2F11249F5762
:1026900050408AF0E1F088234AF0EE0FFF1FBB1F85
:1026A000661F771F881F91505040A9F79E3F510524
:1026B00070F05CCFA6CF5F3FECF3983EDCF38695DD
:1026C00077956795B795F795E7959F5FC1F7FE2BCF
:1026D000880F911D9695879597F908950E94B613D6
:1026E000A59F900DB49F900DA49F800D911D112466
:1026F00008952F923F924F925F926F927F928F92A6
:102700009F92AF92BF92CF92DF92EF92FF920F9380
:102710001F93CF93DF93CDB7DEB7CA1BDB0B0FB68A
:10272000F894DEBF0FBECDBF09942A883988488847
:102730005F846E847D848C849B84AA84B984C884DD
:10274000DF80EE80FD800C811B81AA81B981CE0FD4
:10275000D11D0FB6F894DEBF0FBECDBFED010895B9
:10276000EE0FFF1F0590F491E02D0994A29FB00198
:10277000B39FC001A39F700D811D1124911DB29FB5
:0E278000700D811D1124911D0895F894FFCF56
:10278E0000E1000000000000000074028000010162
:10279E00000000005F057505CA01000000005F051E
:1027AE0075058805000000005F057505D70500005A
:1027BE000000AC0719073B075F074807A807820709
:0E27CE0000000000141019078210F0103811DE
:00000001FF
